:100000000C9446000C9465000C9465000C946500FB
:100010000C9465000C9465000C9465000C946500CC
:100020000C9465000C9465000C9465000C9410070A
:100030000C9465000C9465000C9465000C946500AC
:100040000C9465000C9465000C9465000C9465009C
:100050000C9465000C9465000C9465000C9465008C
:100060000C9406050C9465000C9465000C946500D6
:100070000C9465000C9465000C9465000C9465006C
:100080000C94F7040C9465000C94650011241FBEB9
:10009000CFEFD0E4DEBFCDBF11E0A0E0B1E0ECE6F1
:1000A000FFE000E00BBF02C007900D92A230B10745
:1000B000D9F728E0A2E0B1E001C01D92A032B2075A
:1000C000E1F70E947B040C94B4070C9400003D0AF5
:1000D000410A4F0A660A850AAE0AE00A1B0B5E0B4C
:1000E000AB0B010C5F0CC60C360DAE0D2F0EB80E0F
:1000F0004A0FE40F86103111E3119D125F1329148A
:10010000FA14D315B3169A1788187D19791A7C1B1F
:10011000841C931DA91EC41FE4200B2237236824CE
:100120009E25D92618285C29A52AF12B422D962E2A
:10013000ED2F4831A63206346A35CF363738A1392B
:100140000D3B7A3CE93D583FC9403A42AC431E451D
:10015000904601487249E34A534CC14D2F4F9A5083
:1001600004526C53D25435569657F4584E5AA65BE7
:10017000FA5C4A5E975FDF60236263639E64D465C6
:10018000056731685769786A936BA86CB76DC06E64
:10019000C26FBE70B371A1728873687441751276B4
:1001A000DC769E7758780B79B579577AF17A837B2C
:1001B0000C7C8D7C067D757DDC7D3B7E907EDD7EBE
:1001C000217F5B7F8D7FB67FD67FEC7FFA7FFE7FBE
:1001D000FA7FEC7FD67FB67F8D7F5B7F217FDD7ED0
:1001E000907E3B7EDD7D757D067D8D7C0D7C837BE9
:1001F000F17A577AB5790B7958789E77DC76127652
:10020000417568748873A172B371BE70C26FC06E9D
:10021000B76DA86C936B786A576931680567D465C8
:100220009E6463632362DF60975F4A5EFA5CA65B4D
:100230004E5AF45896573556D2546C5304529A502D
:100240002F4FC14D534CE34A7349014890461E4518
:10025000AC433A42C940583FE93D7A3C0D3BA13995
:100260003738CF366A350634A6324831ED2F962E10
:10027000422DF12BA52A5C291828D9269E25682411
:1002800037230B22E420C41FA91E931D841C7C1B52
:10029000791A7E1988189A17B316D315FA142914E7
:1002A0005F139D12E31131118610E40F4A0FB80E4F
:1002B0002F0EAE0D360DC60C5F0C010CAB0B5E0B9A
:1002C0001B0BE00AAE0A850A660A4F0A410AFF7F45
:1002D0000000F57F2403D77F4706A67F6A09617F68
:1002E0008B0C087FAB0F9C7EC7121C7EE115897DAD
:1002F000F818E27C0B1C297C191F5C7B23227C7A7A
:1003000027258979262883781E2B6B77102E407637
:10031000FB300375DE33B573B93654728C39E17036
:10032000563C5E6F163FC96DCD41236C7A446C6AB2
:100330001C47A568B349CE663F4CE764BF4EF162E7
:100340003351EB609A53D65EF455B35C4258815AF0
:10035000815A4258B35CF455D65E9A53EB603351E0
:10036000F162BF4EE7643F4CCE66B349A5681C47B7
:100370006C6A7A44236CCD41C96D163F5E6F563C62
:10038000E1708C395472B936B573DE330375FB30C6
:100390004076102E6B771E2B8378262889792725A7
:1003A0007C7A23225C7B191F297C0B1CE27CF818C9
:1003B000897DE1151C7EC7129C7EAB0F087F8B0CDC
:1003C000617F6A09A67F4706D77F2403F57F000077
:1003D000FE7FDCFCF57FB9F9D77F96F6A67F75F333
:1003E000617F56F0087F39ED9C7E1FEA1C7E08E78E
:1003F000897DF5E3E27CE7E0297CDDDD5C7BD9DA11
:100400007C7ADAD78979E2D48378F0D16B7705CF1B
:10041000407622CC037547C9B57374C65472AAC31B
:10042000E170EAC05E6F33BEC96D86BB236CE4B871
:100430006C6A4DB6A568C1B3CE6641B1E764CDAE76
:10044000F16266ACEB600CAAD65EBEA7B35C7FA57A
:10045000815A4DA342582AA1F555159F9A530F9DD5
:100460003351199BBF4E32993F4C5B97B3499495DA
:100470001C47DD937A443792CD41A290163F1F8FDF
:10048000563CAC8D8C394C8CB936FD8ADE33C08934
:10049000FB309588102E7D871E2B77862628848535
:1004A0002725A4842322D883191F1E830B1C77823F
:1004B000F818E481E1156481C712F880AB0F9F80C2
:1004C0008B0C5A806A09298047060B8024030000A0
:1004D00000020001000380008002800180034000D0
:1004E000400240014003C000C002C001C003200020
:1004F000200220012003A000A002A001A0036000B0
:10050000600260016003E000E002E001E00310002F
:10051000100210011003900090029001900350000F
:10052000500250015003D000D002D001D00330005F
:10053000300230013003B000B002B001B0037000EF
:10054000700270017003F000F002F001F003080087
:10055000080208010803880088028801880348000F
:10056000480248014803C800C802C801C80328005F
:10057000280228012803A800A802A801A8036800EF
:10058000680268016803E800E802E801E80318006F
:10059000180218011803980098029801980358004F
:1005A000580258015803D800D802D801D80338009F
:1005B000380238013803B800B802B801B80378002F
:1005C000780278017803F800F802F801F8033F9206
:1005D0002F921F930F93DF93CF93DC01EB019927A9
:1005E000EEECF0E000E011E0259135914D915D9148
:1005F000B503B0012C031001691FBC03790B300C4B
:10060000611D791FDA03790B300C611D791F699325
:100610007993699379930150104031F7CF91DF912D
:100620000F911F912F903F90112408953F922F9288
:100630005F924F927F926F929F928F92BF92AF92F2
:10064000DF92CF92FF92EF921F930F93DF93CF939E
:10065000FC0181E090E0A0E8B0E004E0809F600150
:10066000909FD00C7C019F938F93EF01A09FC00DB2
:10067000D11DB09FD00DFF93EF93BB24AA249927DF
:100680000081118115950795688179817595679528
:10069000A801061B170B460F571F4193519320814A
:1006A0003181359527956A817B8175956795A9017B
:1006B000261B370B460F571F419351930F01EEEC4A
:1006C000F2E0EA0DFB1D4591559165917591F001A0
:1006D000950320010C031001491E9C03590A300C9C
:1006E000411C591ED803590A300C411C591EB7032E
:1006F00040012E033001891EBE03990A700C811C33
:10070000991EFA03990A700C811C991E260C371C3D
:10071000481C591C49925992B50320012C03100121
:10072000491EBC03590A300C411C591EDA03590AF0
:10073000300C411C591E970340010E033001891EE5
:100740009E03990A700C811C991EF803990A700C7B
:10075000811C991E26183708480859084992599251
:10076000AC0CBD1CB1FE8CCF04E0A09FC00DD11D10
:10077000E00DF11DB09FD00DF00D81E0E81AF90AEF
:1007800009F07BCFEF91FF918F919F91880F991F77
:10079000B695A795109609F060CFCF91DF910F9194
:1007A0001F91EF90FF90CF90DF90AF90BF908F9010
:1007B0009F906F907F904F905F902F903F90089503
:1007C0003F922F925F924F927F926F929F928F9261
:1007D000BF92AF921F930F93DF93CF935C01EB0116
:1007E000EEECF4E0992700E810E0A591B591AA0D90
:1007F000BB1D2D913D914D915D91B30320012A03C5
:100800001001491EBA03590A300C411C591EBA0383
:10081000590A300C411C591ED50340014C033001CC
:10082000891EDC03990A700C811C991EDC03990A4D
:10083000700C811C991E260C371C481C591C662400
:1008400077248824992421E030E04427552770E15B
:10085000220C331C441C551C661C771C881C991CDC
:10086000220C331C441C551C661C771C881C991CCC
:100870002AF4620E731E841E951E04C0621A730A47
:10088000840A950A220F331F441F287F256097FC96
:1008900022507A95E9F646953795279546953795EE
:1008A0002795299339930150104009F09ECFCF919D
:1008B000DF910F911F91AF90BF908F909F906F909D
:1008C0007F904F905F902F903F9011240895AC013E
:1008D0009927D703F0014E03D001E91FDE03F90B7E
:1008E000B00DE11DF91FFC03F90BB00DE11DF91F5F
:1008F000CF011124089580E8809390008BE08093CD
:10090000910081E19AE7909399008093980082E0AA
:100910008093710080E480937C008FEE80937A0056
:1009200010927B0081E080937E0078940E9485067F
:1009300080911A01811123C080911B018823C1F38A
:100940000E94850660E080E00E94050760911C011E
:1009500070911D01882777FD8095982F0E94E206EF
:1009600061E080E00E94050760911E0570911F05FF
:1009700080E090E00E94E20610921B01D9CF6EE168
:1009800071E080E295E00E94E70210921A01109255
:1009900017011092160180917A00886080937A0086
:1009A0008EE191E00E94160360E277E08EE191E033
:1009B0000E94E00320E030E0E0E2F7E070E060E079
:1009C00080E090E0419151912417350718F4782F79
:1009D000692F9A01019680389105A1F730931F0580
:1009E00020931E0570931C0160931D01A5CF1F92DB
:1009F0000F920FB60F9211248F9381E080931B0109
:100A00008F910F900FBE0F901F9018951F920F920D
:100A10000FB60F9211240BB60F922F938F939F93C3
:100A2000EF93FF9380917800909179009093190152
:100A30008093180180911801909119018E31924094
:100A40003CF48091180190911901833E914084F407
:100A5000E0911601F0911701809118019091190110
:100A6000EE0FFF1FE05EFA4F9250918380830AC021
:100A7000E0911601F0911701EE0FFF1FE05EFA4FB3
:100A80001182108280911601909117010196909326
:100A900017018093160180911601909117018F3FE5
:100AA000910549F044F080917A00877F80937A0025
:100AB00081E080931A01FF91EF919F918F912F9187
:100AC0000F900BBE0F900FBE0F901F90189581E0F6
:100AD00090E06F9364E06A95F1F76F910197C9F721
:100AE00008950F931F93CF93DF9317B13D982898E4
:100AF000299AC0E0D0E00E9467052A9A0E94670503
:100B000006B12A980E9467052A9A0E9467052A98CA
:100B1000249605FF10C09E0140E050E08091060140
:100B200090910701A0910801B09109012817390798
:100B30004A075B0700F39E0140E050E08091060108
:100B400090910701A0910801B09109012817390778
:100B50004A075B0728F082E390E0A0E0B0E004C021
:100B600080E395E7A0E0B0E0809306019093070151
:100B7000A0930801B093090117B9DF91CF911F919C
:100B80000F91089528B190E08F709070880F991F91
:100B9000880F991F237C282B28B92A9A0E94670561
:100BA0002A980E9467050895A2E0B0E0EAEDF5E01A
:100BB0000C948A07182F4A8369830E944F060E946B
:100BC0007105F7B008B1299869814A81662311F04F
:100BD000289A01C0289887B18C6387B9413029F0E1
:100BE000812F82958F700E94C205812F8F700E9485
:100BF000C205F7B808B92296E5E00C94A60760E0B4
:100C000042E00E94D405089561E042E00E94D405CC
:100C1000089560E041E00E94D40508953D98459A0A
:100C200080E395E7A0E0B0E0809306019093070190
:100C3000A0930801B0930901209A219A229A8EE18B
:100C400090E00E94580783E00E94090686E090E049
:100C50000E94580783E00E94090682E090E00E940B
:100C6000580783E00E94090682E090E00E9458073E
:100C700082E00E94090682E090E00E94580788E224
:100C80000E94FF0588E00E94FF0581E00E94FF05A9
:100C900086E00E94FF058CE00E94FF050895809188
:100CA0000A01882329F481E080930A010E940E063C
:100CB000089581E00E94FF05809102019091030157
:100CC000009711F1A0E0B0E208C0E0910201F091BC
:100CD0000301E20FF31FB083AF5F2A2F30E0809152
:100CE000000190E001976091010170E0869FA001F2
:100CF000879F500D969F500D1124241735072CF314
:100D0000109205011092040108950E945906089559
:100D1000AAE0B0E0EEE8F6E00C9485079B01AC0198
:100D20001AE06AE0C62ED12CE12CF12C5E01089469
:100D3000A11CB11C022FCA01B901A70196010E9492
:100D40005B071150F501E10FF11D005D922F990F26
:100D5000892F880F880F890F081B00832115310503
:100D60004105510539F708C0F601E10FF11D8081F9
:100D70000E9404061F5F04C06E010894C11CD11CB0
:100D80001A3090F32A96EAE00C94A107EF92FF92B2
:100D90000F931F937B018C0197FF0BC0109500955B
:100DA000F094E094E11CF11C011D111D8DE20E94E4
:100DB0000406C801B7010E9488061F910F91FF9099
:100DC000EF9008950E94C6060895A5E0B0E0EBEE0E
:100DD000F6E00C948C07182F80E8898380EC8A83D6
:100DE00084E98B8384ED8C83FE01E60FF11D818104
:100DF000810F6D830E94FF05109305016D81609343
:100E000004012596E3E00C94A8070E94E5060895E6
:100E10006F9364E06A95F1F76F910197C9F70895B0
:100E20002F928F939F932FB680910C0190910D017B
:100E3000019680930C0190930D0190E080910E013A
:100E4000891F80930E01909114019C5F909314016F
:100E50008091130180519742C0F0909314018093C8
:100E6000130180910F0190911001019680930F0161
:100E70009093100190E080911101891F80931101DE
:100E800080911201891F809312012FBE9F918F9133
:100E90002F901895CF93DF93EC0105C088EE93E077
:100EA0000E94080721972097C9F7DF91CF910895F5
:100EB0000E944A070895A1E21A2EAA1BBB1BFD013E
:100EC0000DC0AA1FBB1FEE1FFF1FA217B307E40729
:100ED000F50720F0A21BB30BE40BF50B661F771F81
:100EE000881F991F1A9469F7609570958095909561
:100EF0009B01AC01BD01CF0108952F923F924F920B
:100F00005F926F927F928F929F92AF92BF92CF9299
:100F1000DF92EF92FF920F931F93CF93DF93CDB7A2
:100F2000DEB7CA1BDB0B0FB6F894DEBF0FBECDBF1A
:100F300009942A88398848885F846E847D848C84EB
:100F40009B84AA84B984C884DF80EE80FD800C81F4
:100F50001B81AA81B981CE0FD11D0FB6F894DEBFD7
:0C0F60000FBECDBFED010895F894FFCF47
:020F6C00021071
:00000001FF
